:100000000C948B020C94A8020C94A8020C94A802E5
:100010000C94A8020C94A8020C94A8020C94A802B8
:100020000C94A8020C94A8020C9447180C94031882
:100030000C949A190C94A8020C94A8020C94A8028F
:100040000C94A8020C94A8020C94A8020C94A80288
:100050000C94A8020C9476190C94A8020C94A80293
:100060000C94A8020C94A8020C94A8020C94A80268
:100070000C94A8020C94A8020C94A8020C94A80258
:100080000C94A8020C94A8020C94A8020C94A80248
:100090000C94A8020C94A8020C94A8020C94A80238
:1000A0000C94A8020C94A8020C94A8020631FF0933
:1000B00074A1010975150026FF00952075088102BD
:1000C0000976150026FF00952075089102C00501EC
:1000D0000902A10185020901A100050919012908E8
:1000E00015002501950875018102050109300931C6
:1000F0001581257F95027508810609381581257FB0
:10010000950175088106050C0A38021581257F9531
:100110000175088106C0C005010980A10185031988
:10012000012AB700150126B700950175108100C09E
:10013000050C0901A101850419012AA00215012657
:10014000A002950175108100C005010906A1018575
:1001500006050719E029E7150025019508750181B5
:10016000020507190029EF1500250195F075018199
:10017000020508190129059505750191029501757A
:10018000039101C005010906A101050719E029E74E
:1001900015002501950875018102950175088101F9
:1001A0000507190029FF150026FF0095067508812F
:1001B000000508190129059505750191029501753C
:1001C000039101C044454255473A20646973616216
:1001D0006C65642E0A0044454255473A20656E61BD
:1001E000626C65642E0A004F6E6573686F743A2006
:1001F0006163746976653A2025640A000A00253037
:10020000325820006B6579626F6172645F7265704D
:100210006F72743A2000290014001A0008001500BB
:1002200017001C0018000C00120013002A002B00FD
:1002300004001600070009000A000B000D000E0064
:100240000F0033003400E1211D001B0006001900DF
:10025000050011001000360037003800E5000000EE
:1002600000000000E0002C0022522152E2000000B9
:1002700000000000000035001E001F0020002100CB
:100280002200230024002500260027002A00000069
:10029000000000000000000000000000D100CD00C0
:1002A000D200D9000000E1000000000000000000C2
:1002B00000000000CF00CE00D000DA00E500000012
:1002C00000000000E0002C0000000100E20000003F
:1002D0000000000000002B00460063520000007C7C
:1002E00017032F0030002D002E0031004C00390084
:1002F00004011601000009013D04A900AC005200F0
:10030000AB0000002800E1001D011B0106011901DE
:10031000027CAA00500051004F000000E5000000E0
:1003200000000000E000E2000100AE00E20000007A
:10033000000000000000000000000000605200000B
:10034000007C017C000000000000000000000000B4
:10035000000000000000000000000000000000009D
:10036000000000000000000000000000000000008D
:10037000000000000000000000000000000000007D
:10038000000000000000000000000000000000006D
:100390000000000000005B735D000A00253031366C
:1003A00062003A200025303258000A722F63203054
:1003B0003132333435363738394142434445460AC1
:1003C000000A0025303258006C65645F7461736BFD
:1003D0003A2000290A002575002F002575005D28A8
:1003E0000025640020002564002000256400200012
:1003F0002564007C0025303258006D6F7573656B85
:100400006579205B62746E7C782079207620685D47
:10041000287265702F61636C293A205B0061646407
:100420005F6B65795F6269743A2063616E2774203F
:100430006164643A20253032580A0064656C5F6B51
:1004400065795F6269743A2063616E277420646520
:100450006C3A20253032580A005B435D005B445DF6
:10046000005B535D005B575D005B525D0009025B02
:1004700000030100A0FA09040000010301010009C2
:100480002111010001224000070581030800010934
:10049000040100010300000009211101000122B63E
:1004A0000007058203200001090402000203000086
:1004B0000009211101000122220007058303200009
:1004C00001070503032000011201000200000008DB
:1004D000EDFE000000010102000120036B00650039
:1004E000790062006F006100720064002F007300E9
:1004F00061007400750072006E00000014036A0051
:100500006F007300680079006500720061006D0083
:1005100000000403090411241FBECFEFDAE0DEBFA0
:10052000CDBF11E0A0E0B1E0EAE2FCE302C005903B
:100530000D92A236B107D9F722E0A2E6B1E001C0E0
:100540001D92A537B207E1F70E94C1190C94D41D82
:100550000C940000FF93EF93E0916201F09163012E
:10056000309709F00995EF91FF910895FC0185916D
:10057000803011F0EFDFFBCF0895FF27E0E230E29B
:1005800047FF0CC0419597FF09C0EDE2609570955B
:1005900080959095611D711D811D911D27FF02C0E1
:1005A000219530E350E2AA27660F771F881F991F15
:1005B000AA1FA41710F0A41B63955A95A9F7AA3097
:1005C00008F0A95FA05DAF93F395611571058105F2
:1005D000910541F7ED3211F4EF93F395F21718F40A
:1005E0003F93F395FBCF8F91B5DFFA95E1F708952F
:1005F000E991F9918591803021F0853219F0AADFD7
:10060000F9CF089520E0E89455915532C1F3503365
:1006100011F4689455915A3348F4505390F3220FD3
:10062000022E220F220F200D250FF4CF0EF421955C
:1006300089919991533619F3533729F1533559F16B
:10064000BC0188279927E8945C3621F48991999117
:1006500068945591543639F446EF7EF077FF0DC01B
:100660008FEF9FEF0AC055374AE039F0583540E127
:1006700021F0523642E009F00895FF93EF937DDFB9
:10068000EF91FF91B7CFFF93EF93FC018191803001
:10069000B9F360DFFBCFFF93EF9368DFF1CFDF9318
:1006A000CF93CDB7DEB72596A3DFCF91DF91089525
:1006B000482F209171029091380257E0291302C00F
:1006C00080E0089530E0529FF001539FF00D112417
:1006D000E75CFD4F8181681306C08081481303C029
:1006E00085818111EECF2F5F3F4F2770E7CFE8ED77
:1006F000F0E080818E7F80831092E2001092DA0019
:100700001092E100A0EEB0E08C9181608C9380812A
:100710008F77808319BCA7EDB0E08C918E7F8C938E
:1007200080818F7E80831092090208952091E400D9
:100730003091E50095E6A9012091EC00822F8170AF
:1007400020FF06C08091E80080FF06C080E0089589
:100750002091E80022FD1AC080912E02882389F0A2
:10076000853089F08091EB0085FD0FC02091E40079
:100770003091E50042175307F9F29150E1F684E019
:10078000089582E0089583E0089581E008958091BE
:10079000300287FF13C08091E80082FF06C080917D
:1007A000E8008B778093E80004C080912E028111CD
:1007B000F2CF089580912E028823D9F38091E8002A
:1007C00080FFF8CF8091E8008E77ECCF982F909340
:1007D000E900242F762F50E0891731F07091EC005A
:1007E0002091ED005091F00021FD07C09F5F9730F0
:1007F00071F78093E90081E008953091EB003E7F2E
:100800003093EB003091ED003D7F3093ED0030915F
:10081000EB0031603093EB007093EC002093ED001F
:100820005093F0002091EE0027FDE0CF80E0089586
:10083000B0E0A0E0EEE1F4E00C94341DC8EDD0E0AF
:1008400088818F7E8883E7EDF0E0808181608083FE
:1008500084E082BF81E08093090288818E7F888353
:1008600002EE10E0F80110821092DA0081EEC82E3C
:10087000D12CF601108288818F77888388818068E7
:10088000888388818F7D888319BC10922E021092F4
:100890002F0210922D0210922C0290EEE92EF12CD4
:1008A000F70180818B7F808388818160888342E02B
:1008B00060E080E00E94E603F60180818E7F808305
:1008C000F801808181608083808188608083F70166
:1008D00080818E7F8083888180618883CDB7DEB7F9
:1008E000E8E00C94501DFC01809136029091370293
:1008F00086179707A0F06115710529F49091E8001B
:100900009E779093E80090E06115710551F4911184
:1009100008C08091E80082FF34C080E00895BC01E7
:10092000F2CF80912E028823C1F18530C1F18091F0
:10093000E80083FD30C08091E80082FDEACF80911D
:10094000E80080FFE1CF8091F3002091F200382F82
:100950006115710519F02830310558F091E0283003
:10096000310509F090E02091E8002E772093E8000F
:10097000CBCF81918093F100615071092F5F3F4F80
:10098000E7CF80912E02882341F0853041F080919D
:10099000E80083FFBECF81E0089582E0089583E000
:1009A000089580910B02089587E797E790930108D7
:1009B0008093000888E19AE00FB6F894A895809398
:1009C00060000FBE90936000FFCF9C014FB7F8947A
:1009D0008091000290910102A0910202B091030265
:1009E0004FBF821B930B08952FB7F894809100029C
:1009F00090910102A0910202B09103022FBF0895CD
:100A0000A3E0B0E0E6E0F5E00C943A1D2091FC0193
:100A10003091FD0128173907A1F09093FD018093D3
:100A2000FC01E091FA01F091FB01309751F024E0D4
:100A300029839B838A830680F781E02DCE0101966E
:100A400009952396E2E00C94561DA3E0B0E0EBE29A
:100A5000F5E00C943A1D2091F8013091F901281726
:100A60003907A1F09093F9018093F801E091FA0120
:100A7000F091FB01309751F023E029839B838A8317
:100A80000680F781E02DCE01019609952396E2E0DC
:100A90000C94561DE091FA01F091FB01309729F07A
:100AA0000190F081E02D0995089580E008958091EE
:100AB000EC0180FD16C081FD16C082FD16C080913C
:100AC000EB018823A1F0883280F428E0829FC001E6
:100AD000112468E270E00E94101D862F672B39F008
:100AE000089582E0089584E0089588E0089581E003
:100AF00008958091EC0180FD1EC081FD15C082FD2E
:100B000015C02091ED01222399F086E0203490F465
:100B1000289F9001112486E0359527958A95E1F765
:100B2000822F232B41F0089583E0089586E00895F5
:100B300082E00895089581E00895F894E82FE29501
:100B4000EF70F0E031A1282F2F7081E090E001C01C
:100B5000880F2A95EAF7982F9095932391A392A155
:100B6000892B82A3789408959091040292FF06C085
:100B7000282F28712830F9F4877F846093FF06C0FE
:100B8000282F28712831F1F4877E84612091050295
:100B900020FF06C0382F38713830D9F4877F816044
:100BA00021FF06C0282F28712831D1F4877E81616A
:100BB00094FD877E0895282F24712430F9F68B7FC9
:100BC0008860DCCF282F2471243101F78B7E886167
:100BD000DDCF382F3171313019F78E7F8860E0CF4B
:100BE000282F2171213121F78E7E8861E1CF823853
:100BF0009105B9F1B0F48133910509F47DC048F451
:100C00008932910509F46DC08A32910509F47BC0DF
:100C100008958533910509F45FC08933910509F181
:100C20000895833E9105D9F138F4803E910529F16C
:100C3000823E910579F10895863E9105D9F1873E6E
:100C4000910509F43EC0843E910541F520910502CD
:100C500021FF24C08091040284FD19C087EE90E03A
:100C6000089520910402237009F05AC020910502D2
:100C700023FF14C089E290E008952091040220FD32
:100C800038C03091050230FF09C024FF43C090E016
:100C900080E008952091040222FDF7CF089520916D
:100CA000040222FD3AC03091050230FD39C024FF14
:100CB000F5CFEDCF2091040223FFF0CF24FDE7CF45
:100CC000CDCF2091040223FD2EC03091050231FFCB
:100CD000EECF84EE90E008952091040225FFDECF50
:100CE000C9CF2091040225FD21C02091050223FFD8
:100CF000D5CF89E390E0D2CF2091040226FFCECF5A
:100D00008AE290E008952091040226FFC7CF81E394
:100D100090E0089583EE90E0089582EE90E00895CB
:100D200080EE90E0089586EE90E0089585E390E0EF
:100D30000895972F7430B8F46C30A8F48430B0F470
:100D400070E02CE0929F600D711D1124FB0190E377
:100D5000899FE00DF11D1124EE0FFF1FEA5EFD4F8C
:100D600085919491089580E090E0089581E0FCCF12
:100D70001F93CF93DF930E94F705EC01C11580E527
:100D8000D807F0F5C11580E4D80708F09CC0C03E34
:100D9000D10520F5CD3CD10508F082C0C83AD10577
:100DA00078F4C53AD10508F073C0C130D10519F106
:100DB000209709F1C430D105F0F4D0E0C0E01BC0A9
:100DC000C33CD105D0F7C85AD0E0CC0FDD1FC45FBB
:100DD000DE4F0990D881C02DD4640DC0C11580E2CA
:100DE000D80708F0D1C0C11581E0D80708F05AC073
:100DF000C83ED10510F7CE01DF91CF911F91089524
:100E0000C03682E5D80718F5C03482E5D80708F067
:100E10006BC0C03282E5D80708F05FC0C11582E51B
:100E2000D80708F497C02C2F2695269580E2289F96
:100E3000900111248C2F8370C1E0D0E002C0CC0F50
:100E4000DD1F8A95E2F7C22BD32BDD68D4CFC03AE1
:100E500082E5D80760F4C03882E5D80708F459C0A5
:100E6000CF71D0E0DC2FCC27C46FD06AC4CFC03C98
:100E700082E5D80708F462C0C03E82E5D80708F0D2
:100E80009CCFDC2FCC27CC27DF71C06FD06AB3CFCB
:100E9000C55AD0E0C75FDE4FC881D0E0D064ABCF89
:100EA000D065A9CF8D2F0E94B405182FCE019927A8
:100EB0000E94F705C12FD0E0DC2FCC27CC27DF71B3
:100EC000C82BD92B98CFCE0199270E94F705CC27A4
:100ED000DF70C82BD92BD06A8ECFCF71D0E0DC2F3A
:100EE000CC27C16FD06A87CF2C2F269526952770E7
:100EF00080E2289F900111248C2F8370C1E0D0E004
:100F000002C0CC0FDD1F8A95E2F7C22BD32BDC6821
:100F100072CF2C2F26952695277080E2289F90016E
:100F200011248C2F8370C1E0D0E002C0CC0FDD1FF4
:100F30008A95E2F7C22BD32BDA685DCF8C2F8F71A5
:100F40000E94B405C82FD0E0DC2FCC27CC27DF715E
:100F5000D06251CF8C2F8F710E94B40555E0D69589
:100F6000C7955A95E1F7CF70D0E0DC2FCC27282F1A
:100F700030E084FF05C044E0220F331F4A95E1F7BB
:100F8000C22BD32BD06937CF8D2F8F710E94B40520
:100F9000182FCE0199270E94F705C12FD0E0DC2F32
:100FA000CC27CC27DF71C82BD92BD2CF809590913D
:100FB000C80198239093C80108958091710290917F
:100FC0003802981301C008958F5F8770FACFB0E0A0
:100FD000A0E0EDEEF7E00C94331D7C010091D80108
:100FE0001091D9018091D6019091D701082B192B2E
:100FF000CFE0D0E0CC24C394D12CBC2EC6010C2E63
:1010000002C0880F991F0A94E2F780239123892B4D
:1010100049F4219790F7B12C8B2DCDB7DEB7E9E0DD
:101020000C944F1DB7018C2F0E9499060E94B806A0
:10103000019779F3F1CFCF93DF93EC010E94E7079B
:10104000BE010E9499060E94B806DF91CF910895D3
:10105000943078F58C3068F5E82FF0E08CE0989FBC
:10106000E00DF11D11249E2F977083E0F695E79512
:101070008A95E1F7EE0FFF1FEE0FFF1FEA57FE4FB5
:1010800050E040E080E0219130E0092E02C036952A
:1010900027950A94E2F721703327042E01C0220F0E
:1010A0000A94EAF7822B4F5F5F4F4430510559F79E
:1010B000089580E00895943098F58C3088F5E82FF5
:1010C000F0E08CE0989FE00DF11D11248E2F8770C9
:1010D00041E001C0440F8A95EAF783E0F695E79571
:1010E0008A95E1F7EE0FFF1FEE0FFF1FEA57FE4F45
:1010F00030E020E070E05191DF011197CB01022E2A
:1011000002C0969587950A94E2F7817081958527AC
:10111000842385278C932F5F3F4F2430310559F767
:1011200008959093D9018093D801089521E030E08B
:1011300002C0220F331F8A95E2F7209530958091E7
:10114000D8019091D901822393230E949108089598
:101150009091A501809589238093A501282F277060
:1011600069F4891759F09091050292FF07C086959E
:10117000869586950E9496081092A501089521E013
:1011800030E002C0220F331F8A95E2F78091D80128
:101190009091D901822B932B0E94910808959093EE
:1011A000D7018093D6010895FC0124812223C1F048
:1011B000808191810E941B0892959F70963091F0DA
:1011C00058F4925F9F70923058F4803F19F030F4D9
:1011D000883E30F481E008959A5FF4CF843FD1F3E4
:1011E00080E00895883EB0F3813FD1F7F3CF829538
:1011F00090E09C01220F331F220F331F2C7C95950A
:101200008795959587958373282B30E0C901880FC2
:10121000991F8A7A359527952575822B0895A6E022
:10122000B0E0E5E1F9E00C94391D49835A83498126
:101230005A819923A1F0222391F0CA010E94E70765
:10124000182F682F89819A810E945B0869817A81B1
:10125000812F0E9499062696E3E00C94551DCA0141
:101260000E942808182FF2CF9FB7F8941092070217
:101270009FBF90912E02943009F048C02091E90060
:101280002F703091EC00932F917030FD90E8922BED
:1012900023E02093E9002091EB0020FF34C020914F
:1012A000EE0027FF30C020910602222321F020917A
:1012B000E80025FF28C01092060226E03091E800E1
:1012C00035FF14C08093F1008091E80085FD27C0B0
:1012D0008091E80080FFFCCF8091E8008E778093BA
:1012E000E8009F709093E90080E0089530912E020D
:1012F000343049F43091EB0035FD05C0215041F404
:1013000081E0809306029F709093E9008FEF08952B
:10131000EFE9FFE03197F1F700C00000CFCF8FB7C2
:10132000F89421E0209307028FBFDBCF0F931F9328
:10133000CF93DF938B01EA0190912E02943061F5F7
:101340008093E9008FEF9091E800815095FD06C0F1
:1013500095ED9A95F1F700008111F5CF8091E800A5
:1013600085FF1AC00E949603811111C08091E80088
:1013700085FD06C08091E8008E778093E800F2CF6B
:10138000F80181918F018093F100219779F7809185
:10139000E8008E778093E800DF91CF911F910F9145
:1013A000089543E050E0BC0182E00E949609089550
:1013B00046E050E0BC0182E00E9496090895CF9378
:1013C000DF93EC0180910801811111C048E050E0E9
:1013D000BE0181E00E94960980E2FE01ACE0B2E02D
:1013E00001900D928A95E1F7DF91CF910895809158
:1013F000040287FF05C040E282E050E0BE01EACF70
:1014000048E081E0FACF20910801222351F1209198
:10141000040227FF26C0E62FE695E695E695EE3115
:1014200078F4E80FF92FF11D677021E030E001C07A
:10143000220F6A95EAF72095828128232283089556
:101440008091FE0180FF19C01F926F938BE394E09F
:101450009F938F930E944F030F900F900F900F90C8
:101460000895FC01329608962191621303C0DF01B2
:1014700011971C92E817F907B9F708952091080110
:10148000222349F12091040227FF25C0E62FE6958B
:10149000E695E695EE3170F4E80FF92FF11D6770CF
:1014A00021E030E001C0220F6A95EAF78281822BA9
:1014B000828308958091FE0180FF1EC01F926F936A
:1014C0008DE194E09F938F930E944F030F900F90B4
:1014D0000F900F900895FC0132962FEF30E041916C
:1014E000641751F02F3F19F4411101C0232F3F5FC2
:1014F0003630A9F72F3F09F40895820F911D27FD7B
:101500009A95FC01628308958091FE0183FF7EC05D
:101510008AEF93E00E94B6028091F3011F928F93AD
:1015200085EF93E09F938F930E944F0383EF93E0A7
:101530000E94B6028091F401282F082E000C330B74
:101540003F938F9380EF93E09F938F930E944F037D
:101550008EEE93E00E94B6028091F501282F082EAE
:10156000000C330B3F938F938BEE93E09F938F93FD
:101570000E944F0389EE93E00E94B6028091F6012B
:10158000282F082E000C330B3F938F9386EE93E0A9
:101590009F938F930E944F0384EE93E00E94B602C4
:1015A0008091F701282F082E000C330B3F938F9367
:1015B00081EE93E09F938F930E944F038EED93E013
:1015C0000E94B6028091ED011F928F938BED93E004
:1015D0009F938F930E944F0389ED93E00E94B60280
:1015E0008091EC011F928F9386ED93E09F938F93F0
:1015F0000E944F0383ED93E00E94B6028DB79EB721
:101600004C960FB6F8949EBF0FBE8DBF0E94F40497
:101610009C019091F4018091F501982B21F0309379
:10162000F1012093F0019091F6018091F701982B40
:1016300021F03093EF012093EE01E091FA01F09157
:10164000FB01309749F082E08093F2010480F5813C
:10165000E02D82EF91E009950895662309F45DC0BD
:101660008D3C41F40E94790581958093F5010E949B
:10167000840A08958E3C19F40E947905F6CF8F3CB8
:1016800031F40E94790581958093F401F0CF803D7B
:1016900019F40E947905F8CF893D29F40E94570575
:1016A0008093F601E4CF8A3D21F40E94570581958D
:1016B000F7CF8B3D31F40E94570581958093F70158
:1016C000D6CF8C3D19F40E945705F8CF9FE2980FB2
:1016D000983070F4815D990B21E030E001C0220F59
:1016E0008A95EAF78091F301822B8093F301BFCFB3
:1016F0008D3D31F48091EC0181608093EC01B7CF96
:101700008E3D21F48091EC018260F7CF8F3D09F08E
:10171000AECF8091EC018460F0CF4091F4018D3C1C
:1017200059F48091F50187FF0DC01092F501411128
:101730000BC01092ED0108C08E3C81F48091F50140
:1017400018169CF3442381F08091F6019091F701E3
:10175000892B09F08CCF1092EB0189CF8F3C49F493
:1017600047FFF0CF1092F4018091F5018111ECCF89
:10177000E0CF803D19F41416ACF3E4CF9091F6015C
:10178000893D29F41916F4F61092F601DBCF8A3D53
:1017900019F497FFD7CFF8CF9091F7018B3D29F43B
:1017A00097FFD0CF1092F701CDCF8C3D19F41916C9
:1017B000CCF3C8CF9FE2980F983090F4815D990BDD
:1017C00021E030E0B90102C0660F771F8A95E2F789
:1017D000CB0180959091F30189238093F301B2CFDF
:1017E0008D3D31F48091EC018E7F8093EC01AACF86
:1017F0008E3D21F48091EC018D7FF7CF8F3D09F074
:10180000A1CF8091EC018B7FF0CF0F931F93CF93EB
:10181000DF938091C8019091C701892B8093640167
:101820009091C6019923B1F0892B80936401809136
:101830000801882309F46FC08091040287FF6BC000
:101840008EE1E6E6F1E090E0815008F066C091118B
:101850001092C60140E250E066EA71E084E691E051
:101860000E94C71D892B09F451C080E2E4E6F1E033
:10187000A6EAB1E001900D928A95E1F7E091FA01B4
:10188000F091FB01309709F441C080910801882351
:1018900059F08091040287FF07C080916401809312
:1018A000650186E0809364010280F381E02D84E687
:1018B00091E009958091FE0182FF28C080FF04C05D
:1018C00084E092E00E94B602D0E0C0E00EEF11E0AA
:1018D0008091FE0180FF0EC0FE01EC59FE4F808119
:1018E0001F928F931F930F930E944F030F900F909F
:1018F0000F900F902196C830D10551F78091FE01CD
:1019000080FF04C08CEF91E00E94B602DF91CF917E
:101910001F910F91089586E094CF2191222309F41D
:1019200093CF9F5F91CF882321F00E94D6070E941A
:10193000050C0895882339F09091C801982B909355
:10194000C8010E94050C0895882399F19CEF980F17
:10195000913A40F4682F84E691E00E94030A0E94C5
:10196000050C089590E2980F983050F4877091E03C
:1019700001C0990F8A95EAF7892F0E94D607EFCF09
:101980009BE5980F933028F490E080E00E942505B5
:10199000089598E5980F9B3128F490E080E00E942C
:1019A0000005089593E3980F933118F460E00E94C6
:1019B0002D0B0895CF93C82F8823D9F18CEF8C0F6E
:1019C000813AC8F580910801882311F180910402C1
:1019D00087FF1EC0EC2FE695E695E695F0E0EC5902
:1019E000FE4F828190E04C2F477021E030E002C032
:1019F000220F331F4A95E2F782239323892B91F01C
:101A00006C2F84E691E00E94030A0E94050C0AC034
:101A1000E6E6F1E08CE691E02191C21789F38E179A
:101A20009F07D1F76C2F84E691E00E943E0A0E9446
:101A3000050CCF91089580E28C0F883068F4C77050
:101A400021E030E001C0220FCA95EAF78091C80179
:101A5000822B8093C801EBCFEBE5EC0FE33040F431
:101A6000F0E0E75FFE4F808190E00E942505E1CF26
:101A7000E8E5EC0FEB3150F4F0E0EE0FFF1FE45F10
:101A8000FE4F808191810E940005D3CF83E38C0FAC
:101A9000833178F661E08C2F0E942D0BCACF0F9313
:101AA0001F93CF93DF93C62FD42F022FFC01858184
:101AB0008823A9F0609374020E94F4049093730247
:101AC00080937202C77081E001C0880FCA95EAF75F
:101AD0000E949A0CDF91CF911F910F9108958091F0
:101AE0007402681335C080917202909173020E9453
:101AF000E5048032934060F510E21D0FCD17B9F078
:101B000080E28C0F883040F4C77081E001C0880FFC
:101B1000CA95EAF70E94930C183048F481E09D2F93
:101B2000977001C0880F9A95EAF70E949A0C802F4F
:101B30000E94DA0C802F0E94A40C183058F6D7703F
:101B400081E001C0880FDA95EAF70E94930CC2CFBA
:101B5000C77081E001C0880FCA95EAF7F6CFCF932E
:101B6000C82F8091050282FB992790F99C17F9F004
:101B7000C0FB82F980930502609104027091050216
:101B800084E090E00E94B11D82E00E94A80880914C
:101B9000FE0180FF0CC01F92CF9387EE91E09F93D0
:101BA0008F930E944F030F900F900F900F90CF9143
:101BB00008951092C80180910801E6E6F1E08823BB
:101BC00029F18091040287FF21C08EE1DF011D927F
:101BD0008A95E9F790E080E00E94250590E080E09A
:101BE0000E9400051092C7010E94050C86E0E2EFFA
:101BF000F1E0DF011D928A95E9F71092ED01109254
:101C0000EB011092EC010E94840A089586E0DECF79
:101C1000AAE2B0E0EEE0FEE00C94391D80E392E031
:101C20002091F100DC012D93CD01B2E088339B07B8
:101C3000B9F780913102833009F470C0B8F4813073
:101C400009F447C0823009F4B1C08091E80083FFF5
:101C500084C280913002909131029A3008F07DC2A6
:101C6000E92FF0E0EA52F24E0C94241D8A3009F478
:101C70008CC08B3009F46FC0893039F78091300205
:101C8000813219F780913402909135020297E8F67B
:101C90008091E800877F8093E8008091E80082FFD0
:101CA00038C09091F3008091F200029731F4809156
:101CB000F100813011F0863021F48091F1008093A1
:101CC0000B028091E8008B778093E8000E94C703A5
:101CD000BCCF80913002813A09F0B7CF8091E80003
:101CE000877F8093E8008091340290913502892BA0
:101CF00061F460E28CE092E070E00E9473048091F5
:101D0000E8008B778093E800A0CF60E090E080E06F
:101D1000F3CF80912E028111C0CF97CF80913002F6
:101D2000813A09F092CF8091340290913502892B4B
:101D300009F08BCF8091E800877F8093E800809145
:101D4000E80080FFFCCF809108018093F100809132
:101D5000E8008E77B9CF80913002813209F075CFDB
:101D60008091340290913502892B09F06ECF8091D9
:101D7000E800877F8093E8000E94C70380913202C9
:101D8000809308010E94D90D60CF8091300281328A
:101D900009F05BCF8091E800877F8093E8000E9484
:101DA000C7038091330280930A024FCF80913002A3
:101DB000813A09F04ACF8091E800877F8093E8005C
:101DC0008091E80080FFFCCF80910A02BECF80386E
:101DD00099F0823809F0C1C1809134028F70873048
:101DE00008F0BBC18093E9008091EB0085FB882758
:101DF00080F91092E90006C080912C0290912D028A
:101E0000911182609091E800977F9093E800809311
:101E1000F1001092F1008091E8008E779AC188233A
:101E200009F488C1823009F098C180913202811191
:101E30008BC1809134028F702FEF280F263008F06D
:101E40008CC18093E9002091EB0020FF7DC193308D
:101E500031F48091EB0080628093EB0075C190912A
:101E6000EB0090619093EB0021E030E001C0220F85
:101E70008A95EAF72093EA001092EA008091EB003D
:101E80008860EACF811169C1109132021F77809179
:101E9000E3008078812B8093E3008091E800877FC6
:101EA0008093E8000E94C7038091E80080FFFCCF88
:101EB0008091E30080688093E30082E0111183E069
:101EC00080932E024AC18058823008F046C120918A
:101ED0003202309133022C3DE3E03E07A1F583E06E
:101EE0008A838AE289834FB7F894DE01139620E053
:101EF0003EE051E2E32FF0E050935700E49120FFE1
:101F000003C0E295EF703F5FEF708E2F90E0EA30F4
:101F1000C0F0C7968D939D932F5F243159F74FBF23
:101F20008091E800877F8093E8006AE270E0CE014C
:101F300001960E9473048091E8008B778093E800FB
:101F40000CC1C096E7CF8091340290913502432FA7
:101F500055274330510509F44AC078F54130510501
:101F600009F47AC08BE590E0EDE6F4E042305105EB
:101F700009F0F3C02091E800277F2093E80020912A
:101F80003602309137028217930708F49C0140E033
:101F90002115310509F065C0411163C08091E80049
:101FA00082FDC9CF80912E02882329F2853019F253
:101FB0008091E80083FFF2CFBECF4132510509F492
:101FC0003CC04232510509F0C8C08330910508F089
:101FD000C4C0FC01EE0FFF1FEB5AFE4F0190F081D1
:101FE000E02D8E5A9E4FDC018C9190E01AC0332771
:101FF00021303105D1F02115310561F02230310554
:1020000009F0ABC0EAEDF4E0E4918E2F90E0EAED48
:10201000F4E007C0E2E1F5E0E4918E2F90E0E2E128
:10202000F5E0009709F499C0A5CFECEFF4E0E49156
:102030008E2F90E0ECEFF4E0F4CF8330910508F0C0
:102040008CC0880F991FFC01E55AFE4F0190F0816A
:10205000E02D89E090E08ECF82E190E0E8ECF4E0C2
:1020600089CF80912E02882309F465CF853009F449
:1020700062CF8091E80083FD5ECF8091E80082FD11
:102080008DCF8091E80080FF83CF9091F300809105
:10209000F2002115310519F08830910550F041E02A
:1020A000089709F040E08091E8008E778093E8007F
:1020B0006FCF44914093F100319621503109019640
:1020C000E8CF803809F049C08091E800877F80938D
:1020D000E80080912F028093F1009DCE81113DC0D8
:1020E000109132021230C8F58091E800877F80930A
:1020F000E80010932F020E94C703112311F084E01F
:1021000005C08091E30087FDFACF81E080932E0225
:1021100042E061EC81E00E94E60342E261EC82E091
:102120000E94E60342E261EC83E00E94E6038091B4
:102130002E0213C080913202813079F481E0933015
:1021400009F080E080932D021092E9008091E80070
:10215000877F8093E8000E94C7038091E80083FF97
:102160000AC08091E800877F8093E8008091EB00AF
:1021700080628093EB00AA96E3E00C94551D0E94C8
:10218000D90D2FEF84E39CE0215080409040E1F78F
:1021900000C0000088E19AE00FB6F894A8958093FB
:1021A00060000FBE90936000FFCFB0E0A0E0EBEDC9
:1021B000F0E10C94321D8C01FC018481882341F1F3
:1021C00021E0408151816281738195810E940F09D4
:1021D000EC01FC01E851FC47E730F105A8F5E052BD
:1021E000F24E0C94241D26E241EE61EEC8010E94DD
:1021F0004F0D8091A501877059F0F80185818823E2
:1022000039F08091050282FF03C082E00E94A80895
:10221000CDB7DEB7EAE00C944E1D27E245EE65EE41
:10222000E5CF26E241EE60EEE1CF27E245EE64EE37
:10223000DDCF26E241EE62EED9CF27E245EE66EE33
:10224000D5CF28E241E0EBCFF8018581882309F45E
:1022500078C310927402CE019057839708F05BC345
:1022600084E090E00E947D1D90930502809304021B
:10227000FE01E150F047E232F10520F4E951F24E5F
:102280000C94241D8091040281608093040295C007
:10229000809105028860809305028FC080910402BE
:1022A0008260F3CF809104028460EFCF80910402BA
:1022B0008860EBCF809105028160EDCF80910502AF
:1022C0008260E9CF809104028061DFCF80910402B7
:1022D0008062DBCF809104028064D7CF0E94D90D49
:1022E000809104028068D1CF809104028C60CDCFB0
:1022F000809105028360CFCF809104028E7FC5CF8D
:1023000080910502877FC7CF809104028D7FBDCF6A
:10231000809104028B7FB9CF80910402877FB5CF73
:10232000809105028E7FB7CF809105028D7FB3CF5C
:10233000809104028F7EA9CF809104028F7DA5CF6A
:10234000809104028F7BA1CF0E94D90D809104025D
:102350008F779BCF80910402837F97CF8091050276
:102360008C7F99CF8091040282FB992790F921E01C
:10237000922790FB82F990FB83F987CF8091050229
:10238000982F909591708E7F892B90FB81F983CF48
:1023900090910402892F8F7B96FF806476CF0E94F4
:1023A000D90D90910402892F97FB87F980586DCF42
:1023B00061E08EE090E00E94931D609104027091B4
:1023C000050284E090E00E94B11D0E94D90D11CF5A
:1023D00060E0EFCF90910402892F8F7E94FF80619F
:1023E00054CF90910402892F8E7F90FF81604DCF52
:1023F00090910502892F877F93FF88604CCF909141
:10240000FE01892F8E7F90FF81608093FE0180FF07
:1024100005C086ED91E00E94B602EBCE84EC91E01F
:10242000FACF6FEF7FEF90E080E00E94B11D0E9435
:10243000BF108091050282FB882780F991E08927EF
:102440000E94AF0DF8018581C081D181882309F4F4
:102450004AC0CE010E94E707F82E682FCE010E94E5
:102460005B08BE018F2D0E9499060E94B806D82FE6
:10247000C92FA82EF801C580B680B2943FE0B322E0
:102480008091A5018770F1F0EC2CCC20E1F0892F30
:10249000807F803451F080E28D0F883098F0B11049
:1024A00004C0892F807E803269F08091050282FF0E
:1024B00009C082E00E94A8088091A5018770EE24DF
:1024C000E3948111E12CDC2ED2942FE0D222FBE0A8
:1024D000FD1508F46DC0ED2DF0E0E75FF14E0C94B2
:1024E000241D80E0ADCFCE010E942808F82EB9CF80
:1024F0002C2F2F70F22EC07F19F0F29490EFF9225A
:10250000CC20B9F0FF2069F080E28D0F883010F008
:10251000A11009C08091C801F82AF092C8010E9458
:10252000050C8D2F43C08091C701F82AF092C70196
:10253000F6CF8D2F0E94A40CFF20D1F1D05ED830B1
:1025400010F0A11004C08F2D0E94D60706C0F09491
:102550008091C701F822F092C7010E94050C28C0A3
:102560003C2F3F70F32EC07FC03219F0F29480EF01
:10257000F822AA2059F081E0A81609F479C0CC20ED
:1025800009F485C0BB2009F447C0CBCF8091050278
:1025900082FD3EC0CC20B1F1FF2039F08091C8010E
:1025A000F82AF092C8010E94050C80E00E94DA0C23
:1025B0002D2D2850330B2430310510F40E944A058C
:1025C000EE20A9F08091A50180FD11C0F8011582CF
:1025D0008695869586950E94BF08C8010E94D510F1
:1025E0008091A5018695869586950E94960820E0A3
:1025F000F8014081518162817381848195810E94BB
:102600000F0906CE80E00E94A40CFF2089F29BCF28
:10261000CC20A1F0B11004C08F2D0E949A0CC8CF1D
:1026200091E0B912C5CF8091C6019F2D9823F9166C
:1026300009F4BECFF82AF092C601BACFB110B8CFD4
:102640008F2D0E94930C9091C6018F2D892329F024
:102650008F2D809589238093C601809185019F2DC0
:10266000982309F4A5CFF094F822F0928501A0CF29
:10267000CC2029F0E5E0EB1508F49ACFCDCFF4E0BB
:10268000FB1508F495CF8F2D0E94930C91CFBB20A2
:10269000D1F329E3A21209C03FEF87EE93E0315056
:1026A00080409040E1F700C000008D2F0E94A40CF4
:1026B0007FCF8C2F86958695837069F0813009F0E5
:1026C00077CF8D2F9C2F9370C11002C080E090E0D7
:1026D0000E9400056DCF8D2F9C2F9370C11002C0FA
:1026E00080E090E00E94250563CF6C2D8D2F0E9425
:1026F0002D0B5ECF8C2F837009F03FC0C11058CFD7
:102700004D2F429546954770440F440F2D2F2F7043
:1027100030E0042E02C0220F331F0A94E2F790E04B
:1027200080E0D4FF09C08FE090E002C0880F991FBD
:102730004A95E2F780959095C695C695C370C230CC
:1027400099F078F44091D6015091D701C13039F019
:10275000822B932B842395230E94CF0829CF242BEF
:10276000352B822B932BF8CF822B932B2091D601E4
:102770003091D70182279327EFCF8695CC2011F097
:102780008C2F8170882309F413CF4D2F42954695E5
:102790004770440F440F2D2F2F7030E0042E02C0DD
:1027A000220F331F0A94E2F790E080E0D4FF09C0C3
:1027B0008FE090E002C0880F991F4A95E2F780955C
:1027C0009095C695C695C370C23099F078F4409143
:1027D000D8015091D901C13039F0822B932B842339
:1027E00095230E949108E4CE242B352B822B932B2A
:1027F000F8CF822B932B2091D8013091D9018227D9
:102800009327EFCFCF70CC2029F08C2F0E94BF08E8
:102810008D2F03CF8D2F0E94930C8C2F0E94960832
:10282000C7CE8D2FE2EFAE1699F1EA1570F0F0EFFA
:10283000AF16D1F021EFA21691F0CC2009F45BC0C5
:10284000B1106FCE8C2F8F7127C033EFA31639F1E3
:1028500094EFA912F2CF8091050282FD2EC08C2F39
:102860008F71CC20D9F218C0CC2069F0E4E0EB15D0
:1028700008F49ECECF7181E090E002C0880F991FCE
:10288000CA95E2F7B8CFF5E0FB1508F491CEF2CF88
:102890008C2F8F71C110C2CF0E94BF0889CE90E0EB
:1028A00080E0CC2009F49DCFCF7181E090E002C0A0
:1028B000880F991FCA95E2F794CFCC2089F0CF7189
:1028C0008C2F0E94BF088091050282FF07C028E07C
:1028D000C29FC001112483608093A5018C2FDCCF9F
:1028E00081E00E94A80831E03B1508F061CE82E04B
:1028F0000E94A8085DCEBB2059F0893309F0D5CEDF
:102900008FEF97EEE3E081509040E040E1F7CBCECF
:102910008C2F8F7183CFC631FCE7DF0701F58091E3
:10292000C8018A7A91E009F490E09093840169E209
:10293000811165E384E691E00E943E0A0E94050C45
:1029400058CCC631DC4709F07DCD8091840169E225
:10295000811165E384E691E00E94030AEFCFC33062
:102960003CE7D30709F45DCDC0F4C1309CE7D9073B
:1029700009F45DCD08F043CDC115DC4709F062CD07
:102980000E94D90DFFEF24E33CE0F150204030409D
:10299000E1F700C000000E94D404CB352CE7D20739
:1029A00009F49FCDCC353CE7D30709F442CDCA35B5
:1029B000DC4709F047CD81E043CDCF93DF93809191
:1029C000A401807F09F04DC08091A301882309F400
:1029D00048C0E091710250913802C0919F01D0919E
:1029E0009E016091A0017091A10147E05E17C9F1BD
:1029F0008E2F90E0E49FF0011124E75CFD4F2481CD
:102A0000222391F1489FF001499FF00D1124DF012D
:102A1000A75CBD4F11962C9111972C1325C02C91BA
:102A20002D1322C015962C91159721111DC01296B9
:102A30002D913C91261B370B20323340A8F4809116
:102A4000A4018F7080618093A401E15CFD4F8081BF
:102A50008F70806180838EE991E00E94D5100E9482
:102A6000DD07DF91CF910895FC013196E770BECF6D
:102A7000A4E1B0E0EEE3F5E10C94301D8C0186E0BA
:102A8000F801DE011F9601900D928A95E1F7F80199
:102A90008481E5809EE9A92E91E0B92E9091A20152
:102AA000911128C0882319F1EE20F1F0C8010E948D
:102AB000D408F82E8823C1F087E0F801D5010190F1
:102AC0000D928A95E1F78091A201813031F48091D5
:102AD0009E0190919F010E941B080E94DD148F2D82
:102AE0006496ECE00C944C1DC8010E94D510FF24A4
:102AF000F394F5CFD080C18082809380F090A301C1
:102B00002091A0013091A101A401421B530B9A0115
:102B1000FF2009F4D9C02032334008F092C0882346
:102B2000F1F290919F018091A401282F207F09F05C
:102B300056C0C91214C090919E01D91210C0E11064
:102B400048C08F7080618093A4018EE991E00E945B
:102B5000D5108091A401F8018683F12CC0CFE1103B
:102B600038C06C2D8D2D0E9458036C2D8D2D0E9428
:102B70005803E82E8111F1CFDF86C88A8F859889A6
:102B80000E941B08292F22952F70243058F49F7023
:102B9000223088F0992399F0F8019681907F79F49A
:102BA000FE2C9DCF2A5F2F70223068F0C8010E9452
:102BB000D510EF2CF5CF992311F0882389F3805E8F
:102BC000883070F3F3CF803F58F3815F833070F724
:102BD000E7CF8091A40181608093A401BECFC91288
:102BE00007C090919E01D91203C0EE2009F48EC057
:102BF000C8010E94D408882309F476CFEE2009F496
:102C000073CF8091A401803288F020919E01309191
:102C10009F01398728879B868A869091A2019C878D
:102C20001D868E87CE0108960E94D51087E0F80198
:102C3000AEE9B1E001900D928A95E1F70E94DD14B2
:102C400056CF9091A401292F207F51F48EE991E075
:102C50000E94D51087E0F50111928A95E9F77DCFA2
:102C6000882309F43CCF80919F018C1110C0809182
:102C70009E01D8120CC0E1100AC09683C8010E94C0
:102C8000D51087E0F50111928A95E9F728CFC801A0
:102C90000E94D408882309F427CFEE2009F424CF1A
:102CA0008091A401803210F220919E0130919F0109
:102CB0003A8329839C828B829091A2019D831E82FC
:102CC0008F83CE010196B0CF40325340D0F6882397
:102CD00009F40DCFFE2CEE2009F406CF80919F0160
:102CE0008C1121C080919E01D8121DC08091A40139
:102CF00080FD10C0982F907F69F0F8018683903F87
:102D000031F0982F907F905F8F70892B8683C80158
:102D10000E94D51087E0F801AEE9B1E001900D9274
:102D20008A95E1F7DCCEC8010E94D40881117ECFDC
:102D30008091A40181608093A401C8010E94D510F4
:102D4000CECEABE1B0E0E7EAF6E10C94381D4E8B55
:102D50005F8B688F798F8A8F9B8F192F91111092BB
:102D6000C7011D8A86E0FE017696DE011F9601905E
:102D70000D928A95E1F70A8D002341F021E04F85FD
:102D8000588969897A89C8010E940F090B8B1C8BAD
:102D900087E0FE013F96DE01189601900D928A951C
:102DA000E1F7CE0108960E94381581110CC087E02A
:102DB000FE013896DE01119601900D928A95E1F799
:102DC0008C8581110BC017E08091710290913802BF
:102DD000891331C06B96E4E00C94541D20913802A5
:102DE00030E0C90101968770992740917102481718
:102DF000190699F097E0929FD001939FB00D11248E
:102E0000A75CBD4FFE01319601900D929A95E1F7B6
:102E1000809338020E94DD07D6CF0E94D90D109210
:102E200038021092710287E0EEE9F1E0DF011D92B5
:102E30008A95E9F7C8CF819FC0011124875C9D4F17
:102E40000E943815882331F28091710290E001963A
:102E50008770992780937102B7CFA6E0B0E0E3E3D3
:102E6000F7E10C94381D0E94F4048C018091C90193
:102E70009091CA018017910781F019821A820E94ED
:102E8000F404682F49815A81792F80E090E00E94F4
:102E9000A1161093CA010093C9012696E4E00C9490
:102EA000541DA8E0B0E0E7E5F7E10C94301D8E0179
:102EB0000F5F1F4F88E0F80111928A95E9F792E4BD
:102EC000E92E91E0F92E6801AA24A394B12CF70110
:102ED00081917F018F3F09F446C0F894E82FE29575
:102EE000EF70F0E021A18F70A50102C0440F551FC3
:102EF0008A95E2F7CA01922F982B91A392A180950F
:102F0000892382A3789400C0E6E4F1E021E030E078
:102F1000912C812C41914F3F09F467C0A42FA295B9
:102F2000AF70B0E090968C9190E04F7002C0959594
:102F300087954A95E2F780FD58C0C901882A992AE9
:102F4000220F331F51E0E235F50721F7F7013197E2
:102F500080818F3F11F00E949D0580EA8A95F1F7EC
:102F6000F60191828082F2E0CF0ED11C46E4E41695
:102F700041E0F40609F0ABCF48E050E0B8018EEC38
:102F800091E00E94C71D892B99F188E0F801AEEC11
:102F9000B1E001900D928A95E1F781E08093CD0137
:102FA0000E94F4049093CC018093CB018091CB01DB
:102FB0009091CC010E94E5040597F0F048E050E0C4
:102FC0006EEC71E08AED91E00E94C71D892BC9F07B
:102FD00088E0EEECF1E0AAEDB1E001900D928A9567
:102FE000E1F781E01092CD0108C090E080E0A6CF2B
:102FF0008091CD018111DACF80E02896ECE00C942D
:103000004C1D80E0EFCF1F920F920FB60F9211244C
:103010002F933F934F935F936F937F938F939F93E0
:10302000AF93BF93CF93DF93EF93FF93D091E900DA
:10303000DF708091EC00C82FC17080FDC0E8109255
:10304000E9008091F000877F8093F00078940E94DF
:10305000080E1092E9008091F00088608093F000E3
:10306000CD2BCF70C093E900FF91EF91DF91CF910D
:10307000BF91AF919F918F917F916F915F914F9190
:103080003F912F910F900FBE0F901F9018951F9298
:103090000F920FB60F9211242F933F934F935F938C
:1030A0006F937F938F939F93AF93BF93EF93FF9310
:1030B0008091E10082FF15C08091E20082FF11C083
:1030C0008091E1008B7F8093E100209108022F5FC7
:1030D000822F62E30E94041D992309F4C0C020934B
:1030E00008028091DA0080FF28C08091D80080FF1C
:1030F00024C08091DA008E7F8093DA008091D9001D
:1031000080FFE3C080E189BD82E189BD09B400FE92
:10311000FDCF81E080932E0289E594E00E94B60203
:1031200080910902811109C00E9477030E9418044E
:103130008091E20084608093E2008091E10080FF52
:103140001BC08091E20080FF17C08091E2008E7F5B
:103150008093E2008091E20080618093E2008091A0
:10316000D80080628093D80019BC85E080932E023D
:1031700081E694E00E94B6028091E10084FF2FC0B6
:103180008091E20084FF2BC080E189BD82E189BD8E
:1031900089B5982F917080FFFBCF8091D8008F7DEB
:1031A0008093D8008091E1008F7E8093E100809130
:1031B000E2008F7E8093E2008091E2008160809344
:1031C000E20080912F02882309F489C084E0809373
:1031D0002E0285E694E00E94B60280912E02809134
:1031E000E10083FF2BC08091E20083FF27C0809124
:1031F000E100877F8093E10082E080932E021092AD
:103200002F028091E1008E7F8093E1008091E200A7
:103210008E7F8093E2008091E20080618093E200E3
:1032200042E060E080E00E94E6038091F000886068
:103230008093F00089E694E00E94B602FF91EF913E
:10324000BF91AF919F918F917F916F915F914F91BE
:103250003F912F910F900FBE0F901F9018951092D5
:10326000080280910702882309F43BCF80912E0247
:103270008430C1F49091E9009F702091EC00822F7E
:10328000817020FD80E8892B93E09093E900909174
:10329000EB0090FF04C09091EE0097FD08C08F7086
:1032A0008093E900109207021CCF1092F1009091D8
:1032B000E80095FDFACF9091E80090FFF0CF909153
:1032C000E8009E779093E800EACF19BC10922E0296
:1032D0008DE594E00E94B602109209022ECF8091F3
:1032E000E30087FD93E090932E0273CF78941F92B2
:1032F0001FB61F9211248F939F93AF93BF9380911A
:10330000000290910102A0910202B0910302019685
:10331000A11DB11D8093000290930102A0930202AF
:10332000B0930302BF91AF919F918F911F901FBEE9
:103330001F9018951F921FB61F9211248F939F9371
:10334000AF93BF938091FF01811113C08091000260
:1033500090910102A0910202B09103024196A11D39
:10336000B11D8093000290930102A0930202B093DA
:103370000302BF91AF919F918F911F901FBE1F902D
:103380001895CDB7DEB72E970FB6F894DEBF0FBEF7
:10339000CDBF85B7806885BF85B7806885BF84B796
:1033A000877F84BF0FB6F894A895809160008861EC
:1033B00080936000109260000FBE80E890E00FB62E
:1033C000F89480936100909361000FBE84E399E0CC
:1033D00090936301809362010E9477030E94180416
:1033E0008091E20084608093E200789480912E02C4
:1033F0008823A1F01091E9001F709091EC00892FB3
:10340000817090FD80E8182B1092E9008091E8000F
:1034100083FD0E94080E1F701093E90082E084BDB6
:1034200093E095BD9AEF97BD80936E0086E30E946E
:103430009D0585E30E949D0582E30E949D0584E32E
:103440000E949D0506E411E0D8018D918D018F3F0A
:1034500011F00E949D05B1E002351B07A9F788E035
:10346000EAEDF1E0DF01282F1D922A95E9F7EEEC55
:10347000F1E0DF011D928A95E9F790E080E00E947B
:103480007D1D863E9E4F09F464C066EE7EEF90E09F
:1034900080E00E94B11D60E082E090E00E94931DF8
:1034A00060E083E090E00E94931D1092D70110929B
:1034B000D60160E074E184E090E00E94B11D60E01C
:1034C00086E090E00E94931D6FEF87E090E00E94FD
:1034D000931D40E050E0BA0188E090E00E94A51DF5
:1034E00060E084E290E00E94931D60E087E190E05C
:1034F0000E94931D60E08CE090E00E94931D60E0CC
:103500008DE090E00E94931D19821A821B821C821A
:103510001D821E821F82188648E050E068E170E03C
:10352000CE0101960E94831D40E050E0BA0180E286
:1035300090E00E94A51D40E050E0BA018FE090E0CD
:103540000E94A51D40E050E0BA0183E190E00E9496
:10355000A51D82E090E00E94751D8093FE0184E02D
:1035600090E00E947D1D90930502809304020E94CA
:103570005117EFEFF6E721E0E150F0402040E1F78E
:1035800000C000000E9451178091DA0180FF08C03E
:103590006FEF7FEF90E080E00E94B11D0E94D404A5
:1035A00083E090E00E94751D90E00E94CF0880E0CB
:1035B00091E09093FB018093FA014CE9642E43E083
:1035C000742E552453942224239480912E02853006
:1035D00079F486E993E00E94B60200E112E180915D
:1035E0002E02853009F49CC00E94D90D0E944A0524
:1035F0000E94511722EEA22E21E0B22E3AED832E28
:1036000031E0932ED401F501219131918D919D915D
:1036100041E0EA3EF40709F4BEC028173907A1F3D8
:103620008091FE0181FF35C08AEA93E00E94B602D4
:103630000AED11E0F12CE12CFF92EF9285EA93E084
:103640009F938F930E944F0382EA93E00E94B602F9
:10365000F8018081C1800E5F1F4F0E94F708D82EAD
:103660008C2D0E94F708DF928F937F926F920E94B9
:103670004F038AE993E00E94B602FFEFEF1AFF0AB8
:103680000FB6F894DEBF0FBECDBF94E0E916F1048B
:1036900099F6412CD4010D911D914D01F501C19078
:1036A000D1905F01C016D10659F1C026D126312C28
:1036B000EE24E394F12CC6018E219F21892BB1F0D9
:1036C00039864A860E94F4049C878B872D8691E078
:1036D00098012E213F21232B09F490E09E874985F4
:1036E0005A856B857C858D850E94A1163394EE0CDE
:1036F000FF1CFCE03F12DFCFF501329711830083FE
:10370000439424E04212C6CF8FB7F8944091000250
:103710005091010260910202709103028FBF41C07B
:1037200080912E02843021F11092FF0188E190E017
:10373000A0E40FB6F894A895809360000FBEA09304
:10374000600083B7817F846083BF83B7816083BF5C
:103750007894889583B78E7F83BF0FB6F894A89529
:1037600080916000886180936000109260000FBEBD
:1037700080912D02882309F432CF0E945117EAED7F
:10378000F1E081919191892B09F020C1B1E0E23EF5
:10379000FB07B9F724CF2817390709F041CF0E945A
:1037A0002D1786E0E2EFF1E0DE01119601900D9217
:1037B0008A95E1F71092F4011092F5011092F6014A
:1037C0001092F7018B819C81892B09F44AC080916A
:1037D000F0019091F1010E94E5049C019091ED01AE
:1037E000992309F40DC121313105D8F19F3F19F01A
:1037F0009F5F9093ED011B81112359F00E94790581
:103800009FEF11160CF491E0899F802D1124809375
:10381000F4011C81112359F00E9479059FEF1116C4
:103820000CF491E0899F802D11248093F501309153
:10383000F4013323B1F02091F501222391F045EBFF
:103840003403C0011124992309F4B4C09093F40106
:1038500045EB240390011124332309F4AEC03093C7
:10386000F5018D819E81892B09F44AC08091EE017A
:103870009091EF010E94E5049C019091EB01992346
:1038800009F4BAC021353105D8F19F3F19F09F5F87
:103890009093EB011D81112359F00E9457059FEF72
:1038A00011160CF491E0899F802D11248093F6016C
:1038B0001E81112359F00E9457059FEF11160CF439
:1038C00091E0899F802D11248093F7013091F601BA
:1038D0003323B1F02091F701222391F045EB34031B
:1038E000C0011124992309F46BC09093F60145EBB4
:1038F000240390011124332309F465C03093F701A8
:1039000046E050E0BE016F5F7F4F82EF91E00E9482
:10391000C71D892B61F48091F4019091F501892BE9
:103920009091F601892B9091F701892B11F00E945B
:10393000840A86E0FE013196A2EFB1E001900D927B
:103940008A95E1F70E944A05182F8091EA0118171D
:1039500009F43BCE1093EA018FB7F894409100022E
:103960005091010260910202709103028FBF809119
:10397000FE0182FF26CE80FF24CE88EC93E00E94D9
:10398000B6028091FE0180FF1CCE1F921F9383EC34
:1039900093E09F938F930E944F038091FE010F90BD
:1039A0000F900F900F9080FF0CCE81EC93E00E945F
:1039B000B60207CE5092F4014BCF5092F50151CF91
:1039C0005092F60194CF5092F7019ACF09BD19BDDC
:1039D00009B400FEFDCF8091D8008F7D8093D80080
:1039E0008091E00082608093E0008091E00081FDA2
:1039F000FCCF0E94D90DF3CD232B09F048CF80CF07
:103A0000232B09F0F5CE2DCF991B79E004C0991F27
:103A1000961708F0961B881F7A95C9F78095089528
:103A200097FB072E16F4009407D077FD09D00E946B
:103A3000611D07FC05D03EF4909581959F4F089538
:103A4000709561957F4F0895EE0FFF1F0590F491DB
:103A5000E02D09942F923F924F925F926F927F9246
:103A60008F929F92AF92BF92CF92DF92EF92FF928E
:103A70000F931F93CF93DF93CDB7DEB7CA1BDB0B3A
:103A80000FB6F894DEBF0FBECDBF09942A883988DF
:103A900048885F846E847D848C849B84AA84B984E6
:103AA000C884DF80EE80FD800C811B81AA81B981F2
:103AB000CE0FD11D0FB6F894DEBF0FBECDBFED0106
:103AC0000895AA1BBB1B51E107C0AA1FBB1FA61765
:103AD000B70710F0A61BB70B881F991F5A95A9F7B7
:103AE00080959095BC01CD010895F999FECF92BDC6
:103AF00081BDF89A992780B50895A8E1B0E042E029
:103B000050E00C94B91DDC01A40FB51F415050408A
:103B100048F0CB01840F951F2E910E94941D4150B7
:103B20005040D0F70895262FF999FECF92BD81BD60
:103B3000F89A019700B4021639F01FBA20BD0FB6EB
:103B4000F894FA9AF99A0FBE08950396272F0E94C7
:103B5000941D0E94931D252F0E94941D242F0C94C8
:103B6000941D0196272F0E94941D0C94931DDC0137
:103B7000CB01FC01F999FECF06C0F2BDE1BDF89A78
:103B8000319600B40D9241505040B8F70895FB01B2
:103B9000DC0104C08D910190801921F44150504006
:103BA000C8F7881B990B0895F894FFCFE70E0F0F05
:103BB000AD100F0FAD10420F630FAD1061106E10FE
:103BC00011111511F3100D1119111D1121117C1175
:103BD000F11184114E115211881156118C11981146
:103BE0006211EA1166119C116A11A011C8116E11BF
:103BF000A411CF117411AA11B2115A1190115E11B2
:103C000094117811AE11BE11D811E811481180112C
:103C1000F81178127812B012B01259137513D81225
:0A3C2000D8127A13021411141114C3
:103C2A00D104DF09D809D10901818283E200E900C0
:103C3A00EA00B500B600B700CD008301CC008A01C6
:103C4A00920194012102230224022502260227025C
:103C5A002A02B300B4006F0070009F01CB019F02DB
:103C6A00A002363532349392946697C63331F7F60A
:103C7A00F5F440B6228401CE00AC007F049804B16A
:023C8A00040034
:00000001FF
